:100000000C94C4010C94E1010C94E1010C948B0557
:100010000C94E1010C94E1010C94E1010C94E101D8
:100020000C94E1010C94E1010C94E1010C94E101C8
:100030000C94E1010C94E1010C94E1010C94E101B8
:100040000C94E1010C94E1010C94E1010C94E101A8
:100050000C94E1010C94E1010C94E1010C94E10198
:100060000C94E1010C94E1010C94E1010C94E10188
:1000700005A84CCDB2D44EB93836A9020C50B9916E
:100080008688083CA6AAAA2ABE000000803F00007D
:10009000000000003C42A581423C3C7EDBFF7E3CF0
:1000A000183C7E3C1800187E7E7E3C18143E3E3E76
:1000B0001400081C3E1C080000183C3C18000008F6
:1000C00018080000FFF7E3F7FF00007E42427E00C1
:1000D00008080808080014141414140000007E0016
:1000E000000008082A1C08000008081C0000808086
:1000F0008080000000000000000000000000000000
:1001000000000000000000000000000000000000EF
:1001100000000000000000000000000000000000DF
:1001200000000000000000000000000000000000CF
:1001300000000000000000000000000000000000BF
:1001400000000000000000000000000000000000AF
:100150000000000000005E00000000060006000035
:10016000247E247E24004854FE542400261608349D
:1001700032016C9292CC60C00000060000000000CA
:100180007E8100000000817E000054387C385400DD
:1001900010107C10100000804000000000101010B3
:1001A00000000000C0C0000000C0300C03007C8ACA
:1001B00092A27C000084FE80000084C2A2928C0087
:1001C000829292926C00302824FE20009E9292929D
:1001D00062007C929292640002C2320E02006C9223
:1001E00092926C004C9292927C0000006666000035
:1001F0000080E66600000814224100002424242424
:1002000024000041221408000402B2120C003C5ADF
:10021000A5B9C23C007C12127C00007E4A4A340020
:10022000003C42422400007E42423C00007E4A4A9A
:100230004200007E12120200003C42523400007E56
:1002400008087E0000427E4200000020423E02007C
:10025000007E08146200007E404040007E0C700C5E
:100260007E007E0618607E00003C42423C00007E1C
:1002700012120C003C42627C4000007E12126C00A4
:1002800000444A52220002027E020200003E404028
:100290003E000618601806001E6018601E0042240A
:1002A0001824420006087008060042625A464200BE
:1002B00000FF8181000000030C30C000008181FF3D
:1002C000000004020102040080808080800000029F
:1002D000040000000038447C4000007E48483000A4
:1002E000003844440000003048487E000038545430
:1002F000580000107C1204000098A47C0000007ECE
:100300000808700000007A00000000403A00000079
:10031000007E1018640000007E0000007C04780459
:100320007800007C04047800003844443800007CE5
:1003300024241800304848F08000007C08040400A1
:1003400000485424000000087E080000003C4040A3
:100350003C000C3040300C003C4030403C00442815
:10036000102844000098A0A078000064544C0000BD
:100370001054AA8200000000FE0000000082AA546F
:10038000100000100810080011241FBECFEFD0E1AC
:10039000DEBFCDBF12E0A0E0B1E0EAEDF0E202C0C6
:1003A00005900D92A433B107D9F72CE0A4E3B2E095
:1003B00001C01D92AA3EB207E1F70E9461060C94AB
:1003C0006B100C940000E62FE695E695E69590E814
:1003D000E99FF0011124E80FF11DE853F74F677012
:1003E00021E030E001C0220F6A95EAF78081822B7C
:1003F000808308952F923F924F925F926F927F92E7
:100400008F929F92AF92BF92CF92DF92EF92FF9224
:100410000F931F93CF93DF9300D000D0CDB7DEB7FB
:100420008C0197FF65C000E010E07A0157FF67C0BC
:10043000E12CF12C6B837C838B819C8197FF67C0BF
:100440001C821B82690137FF6DC0C12CD12C270192
:10045000401A510A57FE03C0519441945108360185
:100460002B813C81621A730A77FE03C071946194F8
:10047000710822242394312C0E151F051CF0222410
:100480002A94322C8B819C818C159D050CF052C0D6
:1004900021E030E03A832983420186189708AA2494
:1004A000BB24A618B7086B81802F0E94E3010E15AC
:1004B0001F0531F42B813C812C153D0509F43FC00B
:1004C000C401880F991FA816B90624F48618970846
:1004D000020D131D8415950534F7840C951C8B8132
:1004E0009C8129813A81820F931F9C838B83DBCF70
:1004F000803891050CF499CF0FE710E096CF403883
:1005000051050CF497CFEFE7EE2EF12C93CF8B81B2
:100510009C81813491050CF495CF80E490E09C831C
:100520008B8390CF213431050CF491CF50E4C52E4C
:10053000D12C8DCF8FEF9FEF9A838983ADCF0F9012
:100540000F900F900F90DF91CF911F910F91FF901F
:10055000EF90DF90CF90BF90AF909F908F907F9063
:100560006F905F904F903F902F90089580E094E0BF
:10057000E8ECF8E0A8ECB4E001900D920197E1F707
:1005800008952F923F924F925F926F927F928F9237
:100590009F92AF92BF92CF92DF92EF92FF920F9312
:1005A0001F93CF93DF9300D000D000D0CDB7DEB73C
:1005B0008D839E83B42FA52FF62FE72F25E33AEFE7
:1005C0004EE85CE36B2F7A2F8F2F9E2F0E94A00E98
:1005D0002B013C01ED81FE8162817381072E000CAD
:1005E000880B990B0E94E50F4B015C01B201C3011E
:1005F0000E947B0D8B01382E292EED81FE816481B6
:100600007581072E000C880B990B0E94E50F6B017A
:100610007C01B201C3010E94E10D2B013C01980154
:10062000432D522DB401C5010E94A00E69837A8327
:100630008B839C839201A301B601C7010E94A00E87
:100640009B01AC0169817A818B819C810E94340F6E
:100650000E94AD0FED81FE81738362839201A3013D
:10066000B401C5010E94A00E4B015C019601A701D7
:10067000B801832D922D0E94A00E9B01AC01B40104
:10068000C5010E94350F0E94AD0FED81FE8175837B
:1006900064830F900F900F900F900F900F90DF9149
:1006A000CF911F910F91FF90EF90DF90CF90BF906F
:1006B000AF909F908F907F906F905F904F903F9002
:1006C0002F9008952F923F924F925F926F927F9258
:1006D0008F929F92AF92BF92CF92DF92EF92FF9252
:1006E0000F931F93CF93DF9300D000D0CDB7DEB729
:1006F0008B839C83B42FA52FF62FE72F25E33AEFAA
:100700004EE85CE36B2F7A2F8F2F9E2F0E94A00E56
:100710002B013C01EB81FC81008111810E947B0D4A
:100720006B017C01EB81FC8164817581072E000CDB
:10073000880B990B0E94E50F4B015C01B201C301CC
:100740000E94E10D2B013C01B801012E000C880B29
:10075000990B0E94E50F9601A7010E94A00E1B01B4
:1007600089839A839201A301B401C5010E94A00E5E
:100770009B01AC01B10189819A810E94350F0E94D1
:10078000AD0FEB81FC817183608366277727601B47
:10079000710B072E000C880B990B0E94E50F92013C
:1007A000A3010E94A00E3B018C019401A501B6019A
:1007B000C7010E94A00E9B01AC01B301C8010E94B9
:1007C000350F0E94AD0FEB81FC81758364830F9020
:1007D0000F900F900F90DF91CF911F910F91FF908D
:1007E000EF90DF90CF90BF90AF909F908F907F90D1
:1007F0006F905F904F903F902F9008952F923F926F
:100800004F925F926F927F928F929F92AF92BF9220
:10081000CF92DF92EF92FF920F931F93CF93DF93CC
:1008200000D000D000D0CDB7DEB78D839E83B42F2B
:10083000A52FF62FE72F25E33AEF4EE85CE36B2F69
:100840007A2F8F2F9E2F0E94A00E2B013C01ED814D
:10085000FE8160817181072E000C880B990B0E942C
:10086000E50F4B015C01B201C3010E947B0D8B01BE
:10087000382E292EED81FE8162817381072E000CB6
:10088000880B990B0E94E50F6B017C01B201C3013B
:100890000E94E10D2B013C019801432D522DB40122
:1008A000C5010E94A00E69837A838B839C83920189
:1008B000A301B601C7010E94A00E9B01AC01698192
:1008C0007A818B819C810E94340F0E94AD0FED8153
:1008D000FE81718360839201A301B401C5010E946E
:1008E000A00E4B015C019601A701B801832D922D4A
:1008F0000E94A00E9B01AC01B401C5010E94350FFE
:100900000E94AD0FED81FE81738362830F900F9083
:100910000F900F900F900F90DF91CF911F910F913B
:10092000FF90EF90DF90CF90BF90AF909F908F900F
:100930007F906F905F904F903F902F900895805CD4
:1009400082B989E18BB988E18BB982E48A95F1F7A4
:1009500000C081E08BB90895DF92EF92FF920F9370
:100960001F93CF93DF93EC01CB011091370204E189
:1009700035E1D32E103420F010540CE04DE0D42E8D
:1009800023E0880F991F2A95E1F7C80FD91FE12CA2
:10099000F12C899182B9DBB80BB9812F0E949F0499
:1009A000809137028F5F809337028FEFE81AF80A41
:1009B00088E0E816F10469F7DF91CF911F910F915C
:1009C000FF90EF90DF900895885482B989E18BB948
:1009D00088E18BB982E48A95F1F700C081E08BB998
:1009E0000895EF92FF920F931F93CF93F894E12C09
:1009F000F12CC0E08C2F0E94E40480E00E949F0450
:100A00001092370200E010E0B8016E0D7F1D88ECF7
:100A100094E00E94AC040F5F1F4F00311105A1F755
:100A2000CF5F80E1E80EF11CC83021F77894CF91B8
:100A30001F910F91FF90EF900895AF92BF92CF92C8
:100A4000DF92EF92FF920F931F93CF93F894C12CF4
:100A5000D12C7601C0E08C2F0E94E40480E00E943B
:100A60009F0410923702C60188539B4F5C0100E03F
:100A700010E0F50161915F0170E080E091E00E947B
:100A8000AC040F5F1F4F0031110599F7CF5FF0E8FD
:100A9000CF0ED11CE11CF11CC830E9F67894CF913F
:100AA0001F910F91FF90EF90DF90CF90BF90AF908C
:100AB0000895CF93DF939C0146E0469FC001479F76
:100AC000900D1124BC0162577F4F80E090E0A5E1BA
:100AD000B4E155E0CDE0DCE0FB01E80FF91FE49163
:100AE000E2B940913702403498F0CBB9DBB942E427
:100AF0004A95F1F700C05BB9409137024F5F4093D0
:100B0000370201962817390739F7DF91CF910895F9
:100B1000ABB9BBB9ECCF0F920FB60F921F92112455
:100B20002F933F934F935F936F937F938F939F93F5
:100B3000AF93BF93EF93FF938091E90C81111CC099
:100B40008091E80C8130C1F081E08093E80C199924
:100B50002BC088E085B98FEF81B986B1E6B18131CC
:100B6000E0F4F0E0E050FE4F808182B9199B1AC09A
:100B700088E185B91092E80CFF91EF91BF91AF9198
:100B80009F918F917F916F915F914F913F912F91A5
:100B90001F900F900FBE0F901895E051FF0BE85477
:100BA000FB4FE2CF0000E2CF1899E4CF15B811B89F
:100BB00096B1903108F463C08091BF043091BA04BB
:100BC0008330E1F1843009F448C0823011F1809122
:100BD000B90446B120B150E8859FC0011124830FAC
:100BE000911D092E000CAA0BBB0B50E060E070E0D9
:100BF0004051510961097109840F951FA61FB71F44
:100C000088549B4FFC01E05FFB4F20838FEF81B93D
:100C1000AFCF86B120B18051990B43E0880F991F67
:100C20004A95E1F7092E000CAA0BBB0B830F911D0F
:100C3000A11DB11D80509F4FFC01E7CF20B186B1AF
:100C40008051990B092E000CAA0BBB0B830F911D31
:100C5000A11DB11D88549D4FEFCF86B120B18051A9
:100C6000990B092E000CAA0BBB0B830F911DA11D24
:100C7000B11D88549B4FFC01E05FF74FC6CFE6B132
:100C8000F0E090B1E854FB4F90839091BD04911136
:100C90008093E90C8091C104811519F081E0809363
:100CA000E90C8091C604811519F081E08093E90C6C
:100CB0008091C704811509F4A9CF81E08093E90CE4
:100CC000A5CFCDB7DEB7C656D1090FB6F894DEBFB3
:100CD0000FBECDBF8FEF81B912B817B818B888E131
:100CE00084B985B98FE18AB981E08BB92FE73AE100
:100CF00056E0215030405040E1F700C00000E8ECE1
:100D0000F4E080E094E0DF019C011D92215030402E
:100D1000E1F710E00DE1FCE1FF2EA5E0EA2E812FC6
:100D20000E94E40480E00E949F0480E412B80BB9A2
:100D3000FBB832E43A95F1F700C0EBB88A95B1F709
:100D40001F5F183061F70E94E40480E00E949F0456
:100D50001092B8041092B9041092BA0482E38093FE
:100D6000BB048FE58093BC041092BD041092BE04B6
:100D70001092BF0484E08093C0041092C1041092CA
:100D8000C2041092C3041092C4041092C5041092BD
:100D9000C6041092C7049FE392B999E19BB998E108
:100DA0009BB9A3EFB1E01197F1F700C0000091E00B
:100DB0009BB990E2909369008DBB7894FE017F9679
:100DC000FCABEBABD090B804F1E0DF1609F4E5C062
:100DD00022E0D21609F4E6C0D11038C00E94B60253
:100DE000812C912C54018D2D0E94E40480E00E94FE
:100DF0009F0410923702C40188539B4F7C0100E08E
:100E000010E0D7016D917D0170E086E090E00E94D6
:100E100059050F5F1F4F0531110599F760E070E02C
:100E200082E090E00E9459058091370282508093C1
:100E300037028091BB04811161C0D394F0E88F0E1A
:100E4000911CA11CB11C28E0D212CDCF8091C60408
:100E5000811561F01092C6048091B804833009F4C2
:100E6000A6C0843009F438C11092E90C8091BD0409
:100E70008115A1F01092BD0440E853E068E479E0E8
:100E800088EC98E00E94491040E850E060E270E091
:100E900088E49CE00E945B101092E90C8091C104F0
:100EA0008115A9F01092C104E8ECF8E0DF0120E020
:100EB00034E01D9221503040E1F740E850E06FEF00
:100EC00070E088E392E00E945B101092E90C809140
:100ED000C704811509F476CF1092C7041092E90C6B
:100EE0000E94B6028091B804833029F08091B80442
:100EF000843009F067CF0E94F10464CF2091BB04D5
:100F0000809135029091360201969093360280933B
:100F1000350240913402B4E02B9F90011124281730
:100F2000390778F51092360210923502413019F4E3
:100F30001092340282CFE1E0E09334028091B90450
:100F40000E94E4049091BA04892F880F890F880FBA
:100F5000809337029091BA048034B8F0892F880FBB
:100F6000890F880F80540E949F048091BA04609179
:100F7000BC0470E08A3071F484E090E00E9459056E
:100F80005CCF413009F059CFD9CF892F880F890F15
:100F9000880FE9CF86E090E0F1CF0E94B6020E9470
:100FA000F10454CF0E94B6020E941D054FCFF89461
:100FB000912C8091C004981620F00E941D05789411
:100FC00053CFE92DEE0FEE0FF0E0E854FD4F4181D5
:100FD000042E000C550B2281022E000C330B838152
:100FE000082E000C990B6081062E000C770B7C8B71
:100FF0006B8B5E8B4D8B188E1F8A3A8F298F9C8F3F
:101000008B8F1E8E1D8E7E0133E1E30EF11C8E014F
:101010000F5F1F4F5E015BE2A50EB11C6E0185E202
:10102000C80ED11C86E0F701D80101900D928A9577
:10103000E1F740E050E0BA01C8010E94C10240E07F
:1010400050E0BA01C8010E94620340E050E0BA01DA
:10105000C8010E94FE03D8011296ED91FC911397EE
:1010600014962D913C91159728533F4F8D919C914B
:1010700075E0880F991F7A95E1F7B9010E94530D29
:10108000605C7F4FD5016D937D935D01CF01E5E0FD
:10109000880F991FEA95E1F7B9010E94530D605E30
:1010A0007F4FF601619371936F01F6E0EF0EF11C33
:1010B0000A5F1F4F2BA93CA9E216F30609F0B2CF35
:1010C0002FA138A54DA55EA56DA17EA18BA59CA5E0
:1010D0000E94FA0193946DCFF8948091C004811519
:1010E00009F4C2CE2C961FAE2C978091C5042C9685
:1010F0002FAD2C97281708F062CFE091C4042C96EE
:101100003FAD2C97E30F8AE0E89FE02D1124F0E03B
:10111000E854FD4F8080082C000C9908A1800A2C0F
:10112000000CBB08C2800C2C000CDD08E3800E2CE8
:10113000000CFF080481002E000C110B8581682E25
:10114000880F77088681482E880F55088781282EBA
:10115000880F33088085A82F880FBB0BBEABADABC3
:101160008185853030F590E0FC01EE0FFF1FEA5DD0
:10117000FD4F208131812E963FAF2EAF2E978F5D90
:101180009D4FDC018C91E82F880FFF0B2596FFAF58
:10119000EEAF25978091C2048115C9F0813009F422
:1011A0002AC32C96FFAD2C97FF5F2C96FFAF2C9790
:1011B0009CCFF4E62496FFAF249725961FAE259783
:1011C00020E332E02E963FAF2EAF2E97E3CF8091F3
:1011D000DC0C9091DD0CA091DE0CB091DF0C23961D
:1011E0008CAF9DAFAEAFBFAF23978091D80C9091DD
:1011F000D90CA091DA0CB091DB0C8FAB98AFA9AFF2
:10120000BAAF8091D40C9091D50CA091D60CB0912E
:10121000D70C8BAF9CAFADAFBEAF8091D00C90918F
:10122000D10CA091D20CB091D30C2B968CAF9DAF6A
:10123000AEAFBFAF2B978091CC0C9091CD0CA0910D
:10124000CE0CB091CF0C64968CAF9DAFAEAFBFAF5C
:1012500064978091C80C9091C90CA091CA0CB09170
:10126000CB0C68968CAF9DAFAEAFBFAF6897609167
:10127000E00C7091E10C8091E20C9091E30C0E94E3
:10128000AD0F462F572F849EC001859E900D949ED2
:10129000900D11249C8B8B8BA49EC001A59E900D5C
:1012A000B49E900D11249E8B8D8BC49EC001C59E53
:1012B000900DD49E900D1124988F8F8BE49EC001C9
:1012C000E59E900DF49E900D11249A8F898F049FB6
:1012D000C001059F900D149F900D11249C8F8B8F42
:1012E000649EC001659E900D749E900D11249E8F8A
:1012F0008D8F449EC001459E900D549E900D1124EB
:1013000098A38F8F249EC001259E900D349E900D32
:1013100011249AA389A3ADA9BEA9A49FC001A59F2A
:10132000900DB49F900D11249CA38BA37E01B3E17B
:10133000EB0EF11C8E010F5F1F4F1E01EBE22E0E14
:10134000311C6E01F5E2CF0ED11CDAAAC9AA86E0E3
:10135000F701D80101900D928A95E1F74BAD5CAD94
:101360006DAD7EADC8010E94C1024FA958AD69ADF7
:101370007AADC8010E94620323964CAD5DAD6EAD9F
:101380007FAD2397C8010E94FE03D8016D917C9127
:10139000072E000C880B990B0E94E50F68962CAD68
:1013A0003DAD4EAD5FAD68970E94350F0E94AD0F09
:1013B0002B01F8017183608362817381072E000C19
:1013C000880B990B0E94E50F64962CAD3DAD4EAD98
:1013D0005FAD64970E94350F0E94AD0F4B01D8019D
:1013E00013967C936E93129714966D917C91072EB1
:1013F000000C880B990B0E94E50F2B962CAD3DAD90
:101400004EAD5FAD2B970E94350F0E94AD0F462F5A
:10141000572FF801558344839A0128533F4FC20147
:1014200045E0880F991F4A95E1F7B9010E94530DD5
:10143000605C7F4FD1016D937D931D01C40155E028
:10144000880F991F5A95E1F7B9010E94530D605E0C
:101450007F4FF601619371936F01F6E0EF0EF11C7F
:101460000A5F1F4F29A93AA9E216F30609F06FCFC8
:101470008DA19EA12FA138A52817390764F44BA58B
:101480005CA56DA57EA57CA76BA75EA74DA73EA317
:101490002DA398A78FA38DA19EA129A53AA52817B2
:1014A000390764F44BA55CA56FA578A97CA76BA749
:1014B00058AB4FA73EA32DA39AA789A78FA198A5A4
:1014C00029A53AA52817390764F44DA55EA56FA58F
:1014D00078A97EA76DA758AB4FA738A72FA39AA7C7
:1014E00089A7CDA4DEA4ABA4BCA48FA198A59EAB74
:1014F0008DAB2DA03EA04C01821893080FA518A912
:10150000A9A5BAA52196BFAFAEAF21977D01E2187C
:10151000F3083D01681A790A8215930509F41AC186
:10152000B6016A197B09072E000C880B990B0E94E3
:10153000E50F6FAB7BAF2C01B401990C880B990BB5
:101540000E94E50F9B01AC016FA97BADC2010E9417
:101550003B0F6C966FAF6C976D967FAF6D976E96E5
:101560008FAF6E976F969FAF6F97E114F10409F4F8
:10157000FEC0B8016A197B09072E000C880B990B75
:101580000E94E50F2B014C01B701FF0C880B990B52
:101590000E94E50F9B01AC01B201C4010E943B0F08
:1015A0006FAB7BAF28968FAF289761969FAF6197FF
:1015B0006114710409F4E4C0B8016C197D09072EA7
:1015C000000C880B990B0E94E50F7B018C01B30185
:1015D000770C880B990B0E94E50F9B01AC01B701BA
:1015E000C8010E943B0F65966FAF659769967FAF04
:1015F00069976A968FAF6A976B969FAF6B97812CAE
:10160000912CC501BB0CAA0BBB0BA3968CAF9DAF55
:10161000AEAFBFAFA397C601DD0CAA0BBB0BA7965D
:101620008CAF9DAFAEAFBFAFA79721968EAD9FADEC
:101630002197821593050CF4B4CDA3966CAD7DADC6
:101640008EAD9FADA3970E94E50F5B018C01B401A5
:10165000092C000C880B990B0E94E50F2B013C0113
:101660002FA93BAD28964FAD289761965FAD619746
:101670000E94A00E9501A8010E94350F6B017C010C
:10168000ADA9BEA9A215B3050CF087C0B1016A1BB4
:101690007B0B072E000C880B990B0E94E50F6596BB
:1016A0002FAD659769963FAD69976A964FAD6A977A
:1016B0006B965FAD6B970E94A00E5B018C01A796A5
:1016C0006CAD7DAD8EAD9FADA7970E94E50F9B01E0
:1016D000AC01B501C8010E94350F5B018C01262FBA
:1016E0003B2D482F512F6C2D7D2D8E2D9F2D0E942F
:1016F0002010181654F03A2D2B2D902F812F5601C3
:101700008701C32ED22EE92EF82E6A2D7B2D802F35
:10171000912F0E94AD0F8B01C10162E070E00E9429
:10172000530D5C01AA0CBB1C2E96EEADFFAD2E979F
:10173000AE0EBF1E6C2D7D2D8E2D9F2D0E94AD0FE8
:1017400060177107ECF53FEF231A330A5FEF851A34
:10175000950A6BCF6C961FAE6C976D961FAE6D970A
:101760006E961FAE6E976F961FAE6F97FECE1FAA36
:101770001BAE28961FAE289761961FAE619718CFB3
:1017800065961FAE659769961FAE69976A961FAEFC
:101790006A976B961FAE6B9732CF6C962FAD6C9796
:1017A0006D963FAD6D976E964FAD6E976F965FAD30
:1017B0006F97B201C3010E94A00E9501A8018BCFC3
:1017C000C80162E070E00E94530DF501E80FF91FB7
:1017D0008081FFE3F89FC001112425962EAD3FAD17
:1017E00025978217930724F4622D802F0E94E3012E
:1017F0000F5F1F4F9FCF8091C204813009F0D1CC81
:101800008091DC0C9091DD0CA091DE0CB091DF0C8E
:1018100027968CAF9DAFAEAFBFAF27978091D80C06
:101820009091D90CA091DA0CB091DB0C23968CAF7F
:101830009DAFAEAFBFAF23978091D40C9091D50CE4
:10184000A091D60CB091D70C60968CAF9DAFAEAF87
:10185000BFAF60978091D00C9091D10CA091D20C29
:10186000B091D30C8FAB98AFA9AFBAAF8091CC0C2D
:101870009091CD0CA091CE0CB091CF0C8BAF9CAFC2
:10188000ADAFBEAF8091C80C9091C90CA091CA0CAD
:10189000B091CB0C2B968CAF9DAFAEAFBFAF2B975B
:1018A00063E0880C991C6A95E1F79C8A8B8A73E047
:1018B000AA0CBB1C7A95E1F7BE8AAD8AE3E0CC0C9A
:1018C000DD1CEA95E1F7D88ECF8AF3E0EE0CFF1C21
:1018D000FA95E1F7FA8EE98EA3E0000F111FAA95A1
:1018E000E1F71C8F0B8FB3E0660C771CBA95E1F71C
:1018F0007E8E6D8E13E0440C551C1A95E1F758A2AC
:101900004F8E03E0220C331C0A95E1F73AA229A27C
:101910008DA99EA923E0880F991F2A95E1F79CA322
:101920008BA37E0193E1E90EF11C8E010F5F1F4F27
:101930001E01ABE22A0E311C6E01B5E2CB0ED11CAA
:10194000DAAAC9AA86E0F701D80101900D928A951A
:10195000E1F760964CAD5DAD6EAD7FAD6097C801AF
:101960000E94C10223964CAD5DAD6EAD7FAD239755
:10197000C8010E94620327964CAD5DAD6EAD7FAD90
:101980002797C8010E94FE03F80160817181072E2C
:10199000000C880B990B0E94E50F2B962CAD3DADEA
:1019A0004EAD5FAD2B970E94350F0E94AD0F2B01FE
:1019B000D80111967C936E9312966D917C91072EAF
:1019C000000C880B990B0E94E50F2BAD3CAD4DAD83
:1019D0005EAD0E94350F0E94AD0F4B01F80173837D
:1019E000628364817581072E000C880B990B0E941D
:1019F000E50F2FA938AD49AD5AAD0E94350F0E94B1
:101A0000AD0F462F572FD80115965C934E93149720
:101A10009A0128533F4FC20145E0880F991F4A950C
:101A2000E1F7B9010E94530D605C7F4FF1016193B2
:101A300071931F01C40155E0880F991F5A95E1F772
:101A4000B9010E94530D605E7F4FD6016D937D9367
:101A50006D01B6E0EB0EF11C0A5F1F4FE9A9FAA970
:101A6000EE16FF0609F06ECF8FA098A4ADA4BEA419
:101A7000CDA0DEA0EBA4FCA49401A501B601C70192
:101A80000E94FA0109A51AA56FA478A89801A301DC
:101A9000B401C5010E94FA019601A701B801C30172
:101AA0000E94FA017ECB97FB072E16F4009407D014
:101AB00077FD09D00E94670D07FC05D03EF4909594
:101AC00081959F4F0895709561957F4F0895AA1B4A
:101AD000BB1B51E107C0AA1FBB1FA617B70710F019
:101AE000A61BB70B881F991F5A95A9F7809590954B
:101AF000BC01CD0108950E94820DE3950C94AB0DBD
:101B00000C94630E0E94C70DD8F3E894E0E0BB2765
:101B10009F57F0F02AED3FE049EC06C0EE0FBB0FF7
:101B2000661F771F881F28F0B23A62077307840781
:101B300028F0B25A620B730B840BE3959A9572F7F7
:101B4000803830F49A95BB0F661F771F881FD2F735
:101B500090480C94570EEF93E0FF07C0A2EA2AEDDD
:101B60003FE049EC5FEB0E94FA0D0E94880E0F9057
:101B7000039401FC9058E0E7F0E00C94660E57FDEA
:101B80009058440F551F59F05F3F71F04795880FEB
:101B900097FB991F61F09F3F79F087950895121682
:101BA00013061406551FF2CF4695F1DF08C016162E
:101BB00017061806991FF1CF8695710561050894DF
:101BC00008959F930E94820D0F9007FCEE5F0C9486
:101BD000AB0D0E947A0E38F00E94810E20F039F48D
:101BE0009F3F19F426F40C94630E0EF4E095E7FB86
:101BF0000C944F0EE92F0E94BF0D58F3BA176207DD
:101C000073078407950720F079F4A6F50C94990ED4
:101C10000EF4E0950B2EBA2FA02D0B01B901900107
:101C20000C01CA01A0011124FF27591B99F0593F4B
:101C300050F4503E68F11A16F040A22F232F342F93
:101C40004427585FF3CF469537952795A795F040E1
:101C50005395C9F77EF41F16BA0B620B730B840BF6
:101C6000BAF09150A1F0FF0FBB1F661F771F881FAE
:101C7000C2F70EC0BA0F621F731F841F48F4879506
:101C800077956795B795F7959E3F08F0B0CF9395F8
:101C9000880F08F09927EE0F97958795089597F983
:101CA0009F6780E870E060E008959F3F31F09150B9
:101CB00020F4879577956795B795880F911D969530
:101CC000879597F908959FEF80EC08959F938F93E0
:101CD0007F936F93FF93EF939B01AC010E94A00E43
:101CE000EF91FF910E940D0F2F913F914F915F91C6
:101CF0000C94A00E00240A9416161706180609065E
:101D0000089500240A941216130614060506089571
:101D1000092E0394000C11F4882352F0BB0F40F4F9
:101D2000BF2B11F460FF04C06F5F7F4F8F4F9F4F39
:101D30000895E894BB2766277727CB0197F9089584
:101D40000E94B30E0C94880E0E947A0E38F00E9406
:101D5000810E20F0952311F00C944F0E0C94630E1D
:101D600011240C949A0E0E94BF0D70F3959FC1F33D
:101D7000950F50E0551F629FF001729FBB27F00D39
:101D8000B11D639FAA27F00DB11DAA1F649F66278E
:101D9000B00DA11D661F829F2227B00DA11D621FDD
:101DA000739FB00DA11D621F839FA00D611D221F97
:101DB000749F3327A00D611D231F849F600D211D7B
:101DC000822F762F6A2F11249F5750409AF0F1F0FE
:101DD00088234AF0EE0FFF1FBB1F661F771F881F67
:101DE00091505040A9F79E3F510580F00C944F0E42
:101DF0000C949A0E5F3FE4F3983ED4F38695779562
:101E00006795B795F795E7959F5FC1F7FE2B880F0C
:101E1000911D9695879597F90895DF93CF931F931A
:101E20000F93FF92EF92DF927B018C01689406C0C2
:101E3000DA2EEF010E94B30EFE01E894A5912591E0
:101E4000359145915591A6F3EF010E94FA0DFE01DF
:101E50009701A801DA9469F7DF90EF90FF900F9156
:101E60001F91CF91DF9108955058BB27AA270E9458
:101E7000FA0D0C94880E0E944F0F0C94880E0E944D
:101E8000810E58F00E947A0E40F029F45F3F29F04D
:101E90000C944F0E51110C949A0E0C94630E0E94E8
:101EA000BF0D68F39923B1F3552391F3951B550B9F
:101EB000BB27AA2762177307840738F09F5F5F4F1D
:101EC000220F331F441FAA1FA9F335D00E2E3AF05C
:101ED000E0E832D091505040E695001CCAF72BD074
:101EE000FE2F29D0660F771F881FBB1F26173707C5
:101EF0004807AB07B0E809F0BB0B802DBF01FF27F7
:101F000093585F4F3AF09E3F510578F00C944F0E76
:101F10000C949A0E5F3FE4F3983ED4F38695779540
:101F20006795B795F7959F5FC9F7880F911D9695AF
:101F3000879597F90895E1E0660F771F881FBB1F0B
:101F4000621773078407BA0720F0621B730B840BB8
:101F5000BA0BEE1F88F7E09508950E94B40F6894BD
:101F6000B1110C949A0E08950E94C70D88F09F57E6
:101F700098F0B92F9927B751B0F0E1F0660F771FAD
:101F8000881F991F1AF0BA95C9F714C0B13091F0A3
:101F90000E94990EB1E008950C94990E672F782F46
:101FA0008827B85F39F0B93FCCF386957795679568
:101FB000B395D9F73EF490958095709561957F4FD4
:101FC0008F4F9F4F0895E89409C097FB3EF490957A
:101FD0008095709561957F4F8F4F9F4F9923A9F002
:101FE000F92F96E9BB279395F69587957795679591
:101FF000B795F111F8CFFAF4BB0F11F460FF1BC0D5
:102000006F5F7F4F8F4F9F4F16C0882311F096E967
:1020100011C0772321F09EE8872F762F05C0662315
:1020200071F096E8862F70E060E02AF09A95660FCE
:10203000771F881FDAF7880F9695879597F9089587
:102040000E94251008F48FEF0895990F0008550F8E
:10205000AA0BE0E8FEEF16161706E807F907C0F02E
:1020600012161306E407F50798F0621B730B840B36
:10207000950B39F40A2661F0232B242B252B21F410
:1020800008950A2609F4A140A6958FEF811D811DB0
:1020900008956817790768F4FB01DC01E40FF51F68
:1020A000A40FB51F02C002900E9241505040D8F7C5
:1020B00008950C946210DC0101C06D9341505040B2
:1020C000E0F70895FB01DC0102C001900D92415040
:0A20D0005040D8F70895F894FFCFB0
:1020DA0000000000000000003C4295A1A195423C8E
:1020EA00003C7EDBFF7E3C0000183C7E3C18000072
:1020FA0000187E7E7E3C180000143E3E3E1400000E
:10210A0000081C3E1C0800000000183C3C18000097
:10211A00000008180800000000FFF7E3F7FF0000BE
:10212A0000007E42427E00000008080808080000FD
:10213A0000141414141400000000007E00000000B3
:10214A000008082A1C080000000008081C000000FB
:10215A00AA55AA55AA55AA55CCCC3333CCCC33337D
:10216A00181818FFFF181818FF818181818181FFD3
:10217A0000FF00FF00FF00FFAAAAAAAAAAAAAAAA09
:10218A000102040810204080804020100804020147
:10219A0018DB7E3C7EDB1800183C7E7E7E7E3C1877
:1021AA003C7EC38181C37E3C2030383C38302000DD
:1021BA00040C1C3C1C0C0400080C0EFFFF0E0C083F
:1021CA00103070FFFF703010183C7E18181818185D
:1021DA0010646973706C6179202020313238783646
:1021EA003403000003000303030002010300010299
:1021FA000364645A320A1D021902150211023002DE
:04220A0000010000CF
:00000001FF
