:100000000C943E000C9448000C9448000C9448005A
:100010000C9448000C9448000C9448000C94480040
:100020000C9448000C9448000C9448000C94480030
:100030000C9448000C9448000C9448000C94480020
:100040000C9448000C9448000C9448000C94480010
:100050000C9448000C9448000C9448000C94480000
:100060000C9448000C9448000C9448000C944800F0
:100070000C9448000C9448000C94480011241FBEB6
:10008000CFEFD4E0DEBFCDBF0E944A000C94AC009D
:100090000C94000011B812B88FEF84B915B81AB8D3
:1000A0001BB817B818B88AB91BB8289A299A2A9A7F
:1000B0002B9A2D982C9A2C982F982E9A2E981AB805
:1000C0004BED3699FECF96B19370292F30E03499DD
:1000D0001AC0911103C081B942B92CC0913041F4CA
:1000E0001AB881B929982898000099B192B916C018
:1000F0002230310531F71AB881B92B982A980000BF
:1001000099B192B916C03599DCCF911109C08AB95D
:1001100011B8299A2898000090B19BB9289A0AC072
:10012000913051F48AB911B82B9A2A98000090B1F5
:100130009BB92A9A11B8C5CF11B88AB990B19BB9A9
:100140002230310521F42C9A00002C9803C02E9AFD
:0C01500000002E981AB8B5CFF894FFCF2D
:00000001FF
